{
  "contractName": "HelloSolidity",
  "abi": [
    {
      "inputs": [],
      "payable": false,
      "stateMutability": "nonpayable",
      "type": "constructor"
    },
    {
      "constant": true,
      "inputs": [],
      "name": "myValue",
      "outputs": [
        {
          "internalType": "uint256",
          "name": "",
          "type": "uint256"
        }
      ],
      "payable": false,
      "stateMutability": "view",
      "type": "function"
    },
    {
      "constant": false,
      "inputs": [],
      "name": "increase",
      "outputs": [],
      "payable": false,
      "stateMutability": "nonpayable",
      "type": "function"
    },
    {
      "constant": false,
      "inputs": [
        {
          "internalType": "uint256",
          "name": "newValue",
          "type": "uint256"
        }
      ],
      "name": "setValue",
      "outputs": [],
      "payable": false,
      "stateMutability": "nonpayable",
      "type": "function"
    },
    {
      "constant": false,
      "inputs": [],
      "name": "getValue",
      "outputs": [
        {
          "internalType": "uint256",
          "name": "",
          "type": "uint256"
        }
      ],
      "payable": false,
      "stateMutability": "nonpayable",
      "type": "function"
    },
    {
      "constant": false,
      "inputs": [],
      "name": "decrease",
      "outputs": [],
      "payable": false,
      "stateMutability": "nonpayable",
      "type": "function"
    },
    {
      "constant": false,
      "inputs": [
        {
          "internalType": "uint256",
          "name": "a",
          "type": "uint256"
        },
        {
          "internalType": "uint256",
          "name": "b",
          "type": "uint256"
        }
      ],
      "name": "myFunc",
      "outputs": [
        {
          "internalType": "uint256",
          "name": "",
          "type": "uint256"
        },
        {
          "internalType": "uint256",
          "name": "",
          "type": "uint256"
        }
      ],
      "payable": false,
      "stateMutability": "nonpayable",
      "type": "function"
    }
  ],
  "bytecode": "0x608060405234801561001057600080fd5b5060056000819055506101c1806100286000396000f3fe608060405234801561001057600080fd5b50600436106100625760003560e01c80632096525514610067578063364f3d5f1461008557806347f1aae7146100d857806355241077146100f6578063d732d95514610124578063e8927fbc1461012e575b600080fd5b61006f610138565b6040518082815260200191505060405180910390f35b6100bb6004803603604081101561009b57600080fd5b810190808035906020019092919080359060200190929190505050610141565b604051808381526020018281526020019250505060405180910390f35b6100e0610155565b6040518082815260200191505060405180910390f35b6101226004803603602081101561010c57600080fd5b810190808035906020019092919050505061015b565b005b61012c610165565b005b610136610179565b005b60008054905090565b600080828402838501915091509250929050565b60005481565b8060008190555050565b600080815480929190600190039190505550565b600080815480929190600101919050555056fea265627a7a72315820b3e35f4f870d950e8190347d35447fadba1adf19ca154a8bacd57c8d81f87a9664736f6c63430005100032",
  "source": "/*\n    Contract-oriented\n        class = contract\n        method = function\n        instnce variavle = state vairables\n\n        Value type = primitive type (int / bool)\n        Reference type = complex type (array / structure)\n        mapping = dictionary\n*/\n\npragma solidity >=0.5.0;\n\ncontract HelloSolidity {\n\n    // state variable\n    uint public myValue;\n\n    constructor() public {\n        myValue =  5;\n    }\n\n    function increase() public  { // transactional call => need transaction\n        myValue++;\n    }\n\n    function setValue(uint newValue) public {\n        myValue = newValue;\n    }\n\n    function getValue() public returns (uint) { // non-transactional call\n        return myValue;\n    }\n\n    function decrease() public {\n        myValue--;\n    }\n\n    function myFunc(uint a, uint b) public returns (uint, uint) {\n        return (a*b, a+b);\n    }\n\n}",
  "sourcePath": "/Users/kanut/Documents/training/SEC-COIN/hellosolidlty/contracts/HelloSolidity.sol",
  "compiler": {
    "name": "solc",
    "version": "0.5.16+commit.9c3226ce.Emscripten.clang"
  },
  "schemaVersion": "3.2.2",
  "updatedAt": "2020-07-23T06:44:12.860Z",
  "networkType": "ethereum",
  "devdoc": {
    "methods": {}
  },
  "userdoc": {
    "methods": {}
  }
}